{
  "contractName": "CrowdfundingPlatform",
  "abi": [
    {
      "anonymous": false,
      "inputs": [
        {
          "indexed": false,
          "internalType": "uint256",
          "name": "id",
          "type": "uint256"
        },
        {
          "indexed": false,
          "internalType": "contract Campaign",
          "name": "newCampaignAddress",
          "type": "address"
        },
        {
          "indexed": false,
          "internalType": "uint256",
          "name": "endsAt",
          "type": "uint256"
        },
        {
          "indexed": false,
          "internalType": "uint256",
          "name": "goal",
          "type": "uint256"
        },
        {
          "indexed": false,
          "internalType": "address",
          "name": "organizer",
          "type": "address"
        }
      ],
      "name": "CampaignStarted",
      "type": "event"
    },
    {
      "inputs": [
        {
          "internalType": "uint256",
          "name": "",
          "type": "uint256"
        }
      ],
      "name": "campaigns",
      "outputs": [
        {
          "internalType": "contract Campaign",
          "name": "targetContract",
          "type": "address"
        },
        {
          "internalType": "bool",
          "name": "claimed",
          "type": "bool"
        }
      ],
      "stateMutability": "view",
      "type": "function",
      "constant": true
    },
    {
      "inputs": [],
      "name": "campaignsCount",
      "outputs": [
        {
          "internalType": "uint256",
          "name": "",
          "type": "uint256"
        }
      ],
      "stateMutability": "view",
      "type": "function",
      "constant": true
    },
    {
      "inputs": [],
      "name": "owner",
      "outputs": [
        {
          "internalType": "address",
          "name": "",
          "type": "address"
        }
      ],
      "stateMutability": "view",
      "type": "function",
      "constant": true
    },
    {
      "inputs": [
        {
          "internalType": "string",
          "name": "_title",
          "type": "string"
        },
        {
          "internalType": "string",
          "name": "_description",
          "type": "string"
        },
        {
          "internalType": "uint256",
          "name": "_goal",
          "type": "uint256"
        },
        {
          "internalType": "uint256",
          "name": "_endsAt",
          "type": "uint256"
        }
      ],
      "name": "startCampaign",
      "outputs": [],
      "stateMutability": "nonpayable",
      "type": "function"
    },
    {
      "inputs": [
        {
          "internalType": "uint256",
          "name": "id",
          "type": "uint256"
        }
      ],
      "name": "onClaimed",
      "outputs": [],
      "stateMutability": "nonpayable",
      "type": "function"
    }
  ],
  "bytecode": "0x608060405234801561001057600080fd5b506120da806100206000396000f3fe60806040523480156200001157600080fd5b50600436106200005e5760003560e01c8063141961bc1462000063578063263e0dfd146200009a57806344c89b6514620000ba578063736750dc14620000dc5780638da5cb5b14620000fc575b600080fd5b6200008160048036038101906200007b9190620004a4565b6200011e565b604051620000919291906200057e565b60405180910390f35b620000b86004803603810190620000b29190620004a4565b6200016f565b005b620000c46200023b565b604051620000d39190620005bc565b60405180910390f35b620000fa6004803603810190620000f491906200073b565b62000241565b005b6200010662000421565b60405162000115919062000810565b60405180910390f35b60006020528060005260406000206000915090508060000160009054906101000a900473ffffffffffffffffffffffffffffffffffffffff16908060000160149054906101000a900460ff16905082565b600080600083815260200190815260200160002090508060000160009054906101000a900473ffffffffffffffffffffffffffffffffffffffff1673ffffffffffffffffffffffffffffffffffffffff163373ffffffffffffffffffffffffffffffffffffffff16146200021a576040517f08c379a000000000000000000000000000000000000000000000000000000000815260040162000211906200088e565b60405180910390fd5b60018160000160146101000a81548160ff0219169083151502179055505050565b60015481565b42811162000286576040517f08c379a00000000000000000000000000000000000000000000000000000000081526004016200027d9062000926565b60405180910390fd5b60008211620002cc576040517f08c379a0000000000000000000000000000000000000000000000000000000008152600401620002c390620009be565b60405180910390fd5b60018054620002dc919062000a0f565b60018190555060006001548585848633604051620002fa9062000447565b6200030b9695949392919062000aee565b604051809103906000f08015801562000328573d6000803e3d6000fd5b50905060405180604001604052808273ffffffffffffffffffffffffffffffffffffffff16815260200160001515815250600080600154815260200190815260200160002060008201518160000160006101000a81548173ffffffffffffffffffffffffffffffffffffffff021916908373ffffffffffffffffffffffffffffffffffffffff16021790555060208201518160000160146101000a81548160ff0219169083151502179055509050507f57939a7e80d859395ce5ca58869e6e13aade3a8852c5dd68121925f4c722b556600154828486336040516200041295949392919062000b69565b60405180910390a15050505050565b600260009054906101000a900473ffffffffffffffffffffffffffffffffffffffff1681565b6114de8062000bc783390190565b6000604051905090565b600080fd5b600080fd5b6000819050919050565b6200047e8162000469565b81146200048a57600080fd5b50565b6000813590506200049e8162000473565b92915050565b600060208284031215620004bd57620004bc6200045f565b5b6000620004cd848285016200048d565b91505092915050565b600073ffffffffffffffffffffffffffffffffffffffff82169050919050565b6000819050919050565b6000620005216200051b6200051584620004d6565b620004f6565b620004d6565b9050919050565b6000620005358262000500565b9050919050565b6000620005498262000528565b9050919050565b6200055b816200053c565b82525050565b60008115159050919050565b620005788162000561565b82525050565b600060408201905062000595600083018562000550565b620005a460208301846200056d565b9392505050565b620005b68162000469565b82525050565b6000602082019050620005d36000830184620005ab565b92915050565b600080fd5b600080fd5b6000601f19601f8301169050919050565b7f4e487b7100000000000000000000000000000000000000000000000000000000600052604160045260246000fd5b6200062e82620005e3565b810181811067ffffffffffffffff8211171562000650576200064f620005f4565b5b80604052505050565b60006200066562000455565b905062000673828262000623565b919050565b600067ffffffffffffffff821115620006965762000695620005f4565b5b620006a182620005e3565b9050602081019050919050565b82818337600083830152505050565b6000620006d4620006ce8462000678565b62000659565b905082815260208101848484011115620006f357620006f2620005de565b5b62000700848285620006ae565b509392505050565b600082601f83011262000720576200071f620005d9565b5b813562000732848260208601620006bd565b91505092915050565b600080600080608085870312156200075857620007576200045f565b5b600085013567ffffffffffffffff81111562000779576200077862000464565b5b620007878782880162000708565b945050602085013567ffffffffffffffff811115620007ab57620007aa62000464565b5b620007b98782880162000708565b9350506040620007cc878288016200048d565b9250506060620007df878288016200048d565b91505092959194509250565b6000620007f882620004d6565b9050919050565b6200080a81620007eb565b82525050565b6000602082019050620008276000830184620007ff565b92915050565b600082825260208201905092915050565b7f4974206973206e6f742072657175697265642063616d706169676e2e00000000600082015250565b600062000876601c836200082d565b915062000883826200083e565b602082019050919050565b60006020820190508181036000830152620008a98162000867565b9050919050565b7f43616d706169676e206475726174696f6e2063616e2774206265206561726c6960008201527f6572207468616e206e6f772e0000000000000000000000000000000000000000602082015250565b60006200090e602c836200082d565b91506200091b82620008b0565b604082019050919050565b600060208201905081810360008301526200094181620008ff565b9050919050565b7f596f75206d75737420646566696e6520676f616c206f6620796f75722063616d60008201527f706169676e2e0000000000000000000000000000000000000000000000000000602082015250565b6000620009a66026836200082d565b9150620009b38262000948565b604082019050919050565b60006020820190508181036000830152620009d98162000997565b9050919050565b7f4e487b7100000000000000000000000000000000000000000000000000000000600052601160045260246000fd5b600062000a1c8262000469565b915062000a298362000469565b9250827fffffffffffffffffffffffffffffffffffffffffffffffffffffffffffffffff0382111562000a615762000a60620009e0565b5b828201905092915050565b600081519050919050565b60005b8381101562000a9757808201518184015260208101905062000a7a565b8381111562000aa7576000848401525b50505050565b600062000aba8262000a6c565b62000ac681856200082d565b935062000ad881856020860162000a77565b62000ae381620005e3565b840191505092915050565b600060c08201905062000b056000830189620005ab565b818103602083015262000b19818862000aad565b9050818103604083015262000b2f818762000aad565b905062000b406060830186620005ab565b62000b4f6080830185620005ab565b62000b5e60a0830184620007ff565b979650505050505050565b600060a08201905062000b806000830188620005ab565b62000b8f602083018762000550565b62000b9e6040830186620005ab565b62000bad6060830185620005ab565b62000bbc6080830184620007ff565b969550505050505056fe60806040523480156200001157600080fd5b50604051620014de380380620014de8339818101604052810190620000379190620003f9565b856000819055508460019080519060200190620000569291906200010c565b5083600290805190602001906200006f9291906200010c565b50826003819055508160048190555080600660006101000a81548173ffffffffffffffffffffffffffffffffffffffff021916908373ffffffffffffffffffffffffffffffffffffffff16021790555033600760006101000a81548173ffffffffffffffffffffffffffffffffffffffff021916908373ffffffffffffffffffffffffffffffffffffffff16021790555050505050505062000537565b8280546200011a9062000502565b90600052602060002090601f0160209004810192826200013e57600085556200018a565b82601f106200015957805160ff19168380011785556200018a565b828001600101855582156200018a579182015b82811115620001895782518255916020019190600101906200016c565b5b5090506200019991906200019d565b5090565b5b80821115620001b85760008160009055506001016200019e565b5090565b6000604051905090565b600080fd5b600080fd5b6000819050919050565b620001e581620001d0565b8114620001f157600080fd5b50565b6000815190506200020581620001da565b92915050565b600080fd5b600080fd5b6000601f19601f8301169050919050565b7f4e487b7100000000000000000000000000000000000000000000000000000000600052604160045260246000fd5b620002608262000215565b810181811067ffffffffffffffff8211171562000282576200028162000226565b5b80604052505050565b600062000297620001bc565b9050620002a5828262000255565b919050565b600067ffffffffffffffff821115620002c857620002c762000226565b5b620002d38262000215565b9050602081019050919050565b60005b8381101562000300578082015181840152602081019050620002e3565b8381111562000310576000848401525b50505050565b60006200032d6200032784620002aa565b6200028b565b9050828152602081018484840111156200034c576200034b62000210565b5b62000359848285620002e0565b509392505050565b600082601f8301126200037957620003786200020b565b5b81516200038b84826020860162000316565b91505092915050565b600073ffffffffffffffffffffffffffffffffffffffff82169050919050565b6000620003c18262000394565b9050919050565b620003d381620003b4565b8114620003df57600080fd5b50565b600081519050620003f381620003c8565b92915050565b60008060008060008060c08789031215620004195762000418620001c6565b5b60006200042989828a01620001f4565b965050602087015167ffffffffffffffff8111156200044d576200044c620001cb565b5b6200045b89828a0162000361565b955050604087015167ffffffffffffffff8111156200047f576200047e620001cb565b5b6200048d89828a0162000361565b9450506060620004a089828a01620001f4565b9350506080620004b389828a01620001f4565b92505060a0620004c689828a01620003e2565b9150509295509295509295565b7f4e487b7100000000000000000000000000000000000000000000000000000000600052602260045260246000fd5b600060028204905060018216806200051b57607f821691505b602082108103620005315762000530620004d3565b5b50919050565b610f9780620005476000396000f3fe6080604052600436106100a75760003560e01c80637284e416116100645780637284e41614610198578063af640d0f146101c3578063c4ecba10146101ee578063cc6cb19a14610219578063e834a83414610256578063ed88c68e14610281576100a7565b80630a09284a146100ac57806340193883146100d75780634a79d50c146101025780634e71d92d1461012d5780636120326514610144578063709cacc21461016f575b600080fd5b3480156100b857600080fd5b506100c161028b565b6040516100ce9190610952565b60405180910390f35b3480156100e357600080fd5b506100ec610291565b6040516100f99190610952565b60405180910390f35b34801561010e57600080fd5b50610117610297565b6040516101249190610a06565b60405180910390f35b34801561013957600080fd5b50610142610325565b005b34801561015057600080fd5b50610159610563565b6040516101669190610a69565b60405180910390f35b34801561017b57600080fd5b5061019660048036038101906101919190610ab5565b610589565b005b3480156101a457600080fd5b506101ad610742565b6040516101ba9190610a06565b60405180910390f35b3480156101cf57600080fd5b506101d86107d0565b6040516101e59190610952565b60405180910390f35b3480156101fa57600080fd5b506102036107d6565b6040516102109190610952565b60405180910390f35b34801561022557600080fd5b50610240600480360381019061023b9190610b0e565b6107dc565b60405161024d9190610952565b60405180910390f35b34801561026257600080fd5b5061026b6107f4565b6040516102789190610b56565b60405180910390f35b610289610807565b005b60035481565b60045481565b600180546102a490610ba0565b80601f01602080910402602001604051908101604052809291908181526020018280546102d090610ba0565b801561031d5780601f106102f25761010080835404028352916020019161031d565b820191906000526020600020905b81548152906001019060200180831161030057829003601f168201915b505050505081565b600660009054906101000a900473ffffffffffffffffffffffffffffffffffffffff1673ffffffffffffffffffffffffffffffffffffffff163373ffffffffffffffffffffffffffffffffffffffff16146103b5576040517f08c379a00000000000000000000000000000000000000000000000000000000081526004016103ac90610c1d565b60405180910390fd5b60045460055410156103fc576040517f08c379a00000000000000000000000000000000000000000000000000000000081526004016103f390610c89565b60405180910390fd5b600760149054906101000a900460ff161561044c576040517f08c379a000000000000000000000000000000000000000000000000000000000815260040161044390610cf5565b60405180910390fd5b6001600760146101000a81548160ff021916908315150217905550600660009054906101000a900473ffffffffffffffffffffffffffffffffffffffff1673ffffffffffffffffffffffffffffffffffffffff166108fc6005549081150290604051600060405180830381858888f193505050501580156104d1573d6000803e3d6000fd5b50600760009054906101000a900473ffffffffffffffffffffffffffffffffffffffff1673ffffffffffffffffffffffffffffffffffffffff1663263e0dfd6000546040518263ffffffff1660e01b815260040161052f9190610952565b600060405180830381600087803b15801561054957600080fd5b505af115801561055d573d6000803e3d6000fd5b50505050565b600660009054906101000a900473ffffffffffffffffffffffffffffffffffffffff1681565b6003544211156105ce576040517f08c379a00000000000000000000000000000000000000000000000000000000081526004016105c590610d61565b60405180910390fd5b600860003373ffffffffffffffffffffffffffffffffffffffff1673ffffffffffffffffffffffffffffffffffffffff16815260200190815260200160002054811115610650576040517f08c379a000000000000000000000000000000000000000000000000000000000815260040161064790610df3565b60405180910390fd5b80600860003373ffffffffffffffffffffffffffffffffffffffff1673ffffffffffffffffffffffffffffffffffffffff168152602001908152602001600020600082825461069f9190610e42565b9250508190555080600560008282546106b89190610e42565b925050819055503373ffffffffffffffffffffffffffffffffffffffff166108fc829081150290604051600060405180830381858888f19350505050158015610705573d6000803e3d6000fd5b507f9cb6aed18673df8fdf08d6794de6a6b6b2bf74a6b59c33b4a3b81e78781bf1138133604051610737929190610e76565b60405180910390a150565b6002805461074f90610ba0565b80601f016020809104026020016040519081016040528092919081815260200182805461077b90610ba0565b80156107c85780601f1061079d576101008083540402835291602001916107c8565b820191906000526020600020905b8154815290600101906020018083116107ab57829003601f168201915b505050505081565b60005481565b60055481565b60086020528060005260406000206000915090505481565b600760149054906101000a900460ff1681565b60035442111561084c576040517f08c379a000000000000000000000000000000000000000000000000000000000815260040161084390610d61565b60405180910390fd5b6000341161088f576040517f08c379a000000000000000000000000000000000000000000000000000000000815260040161088690610eeb565b60405180910390fd5b34600560008282546108a19190610f0b565b9250508190555034600860003373ffffffffffffffffffffffffffffffffffffffff1673ffffffffffffffffffffffffffffffffffffffff16815260200190815260200160002060008282546108f79190610f0b565b925050819055507f690f18b59ff577d060f474a1a44108ad83d7a8fd971c837465c66dff0e6e1ec0343360405161092f929190610e76565b60405180910390a1565b6000819050919050565b61094c81610939565b82525050565b60006020820190506109676000830184610943565b92915050565b600081519050919050565b600082825260208201905092915050565b60005b838110156109a757808201518184015260208101905061098c565b838111156109b6576000848401525b50505050565b6000601f19601f8301169050919050565b60006109d88261096d565b6109e28185610978565b93506109f2818560208601610989565b6109fb816109bc565b840191505092915050565b60006020820190508181036000830152610a2081846109cd565b905092915050565b600073ffffffffffffffffffffffffffffffffffffffff82169050919050565b6000610a5382610a28565b9050919050565b610a6381610a48565b82525050565b6000602082019050610a7e6000830184610a5a565b92915050565b600080fd5b610a9281610939565b8114610a9d57600080fd5b50565b600081359050610aaf81610a89565b92915050565b600060208284031215610acb57610aca610a84565b5b6000610ad984828501610aa0565b91505092915050565b610aeb81610a48565b8114610af657600080fd5b50565b600081359050610b0881610ae2565b92915050565b600060208284031215610b2457610b23610a84565b5b6000610b3284828501610af9565b91505092915050565b60008115159050919050565b610b5081610b3b565b82525050565b6000602082019050610b6b6000830184610b47565b92915050565b7f4e487b7100000000000000000000000000000000000000000000000000000000600052602260045260246000fd5b60006002820490506001821680610bb857607f821691505b602082108103610bcb57610bca610b71565b5b50919050565b7f596f7520617265206e6f7420746865206f7267616e697a65722e000000000000600082015250565b6000610c07601a83610978565b9150610c1282610bd1565b602082019050919050565b60006020820190508181036000830152610c3681610bfa565b9050919050565b7f4e6f7420656e6f7567682066756e64732e000000000000000000000000000000600082015250565b6000610c73601183610978565b9150610c7e82610c3d565b602082019050919050565b60006020820190508181036000830152610ca281610c66565b9050919050565b7f43616d706169676e20616c72656164792068617320636c61696d65642e000000600082015250565b6000610cdf601d83610978565b9150610cea82610ca9565b602082019050919050565b60006020820190508181036000830152610d0e81610cd2565b9050919050565b7f43616d706169676e20616c726561647920686173206f7665722e000000000000600082015250565b6000610d4b601a83610978565b9150610d5682610d15565b602082019050919050565b60006020820190508181036000830152610d7a81610d3e565b9050919050565b7f796f752063616e7420726566756e64206d6f7265207468616e20796f7520676160008201527f76652e0000000000000000000000000000000000000000000000000000000000602082015250565b6000610ddd602383610978565b9150610de882610d81565b604082019050919050565b60006020820190508181036000830152610e0c81610dd0565b9050919050565b7f4e487b7100000000000000000000000000000000000000000000000000000000600052601160045260246000fd5b6000610e4d82610939565b9150610e5883610939565b925082821015610e6b57610e6a610e13565b5b828203905092915050565b6000604082019050610e8b6000830185610943565b610e986020830184610a5a565b9392505050565b7f596f752063616e277420646f6e61746520302e00000000000000000000000000600082015250565b6000610ed5601383610978565b9150610ee082610e9f565b602082019050919050565b60006020820190508181036000830152610f0481610ec8565b9050919050565b6000610f1682610939565b9150610f2183610939565b9250827fffffffffffffffffffffffffffffffffffffffffffffffffffffffffffffffff03821115610f5657610f55610e13565b5b82820190509291505056fea2646970667358221220649814a5f57448b91f0698fef31e64ab0d4c983554e8327f60e20a0f3dfdf67b64736f6c634300080e0033a2646970667358221220190c2064392dea14e54d0078c6b23c3ab9fe203036b6f714953c1e5724bb831364736f6c634300080e0033",
  "immutableReferences": {},
  "source": "//SPDX-License-Identifier: MIT\npragma solidity 0.8.14;\n\nimport \"./Campaign.sol\";\n\ncontract CrowdfundingPlatform {\n    //    ,        ,     \n    struct CrowdfundingCampaign {\n        Campaign targetContract;\n        bool claimed;\n    }\n\n    // ,    \n    mapping(uint => CrowdfundingCampaign) public campaigns;\n    //  \n    uint public campaignsCount;\n    //  \n    address public owner;\n\n    // ,      \n    event CampaignStarted(uint id, Campaign newCampaignAddress, uint endsAt, uint goal, address organizer);\n\n    //     \n    function startCampaign(\n        string memory _title,\n        string memory _description,\n        uint _goal,\n        uint _endsAt\n    ) external {\n        // ,           0\n        require(_endsAt > block.timestamp, \"Campaign duration can't be earlier than now.\");\n        require(_goal > 0, \"You must define goal of your campaign.\");\n\n        //   \n        campaignsCount = campaignsCount + 1;\n\n        //   \n        Campaign newCampaign = new Campaign(campaignsCount, _title, _description, _endsAt, _goal, msg.sender);\n\n        //     \n        campaigns[campaignsCount] = CrowdfundingCampaign({\n            targetContract: newCampaign,\n            claimed: false\n        });\n\n        //     \n        emit CampaignStarted(campaignsCount, newCampaign, _endsAt, _goal, msg.sender);\n    }\n\n    //   ,    \n    function onClaimed(uint id) external {\n        CrowdfundingCampaign storage targetCampaign = campaigns[id];\n\n        // ,        \n        require(msg.sender == address(targetCampaign.targetContract), \"It is not required campaign.\");\n\n        //   claimed  true\n        targetCampaign.claimed = true;\n    }\n}\n",
  "sourcePath": "/home/yurchenko-a/Desktop/graduation_project/crowdfunding/truffle/contracts/CrowdfundingPlatform.sol",
  "compiler": {
    "name": "solc",
    "version": "0.8.14+commit.80d49f37.Emscripten.clang"
  },
  "schemaVersion": "3.4.11",
  "updatedAt": "2023-06-10T08:57:06.021Z",
  "networkType": "ethereum",
  "devdoc": {
    "kind": "dev",
    "methods": {},
    "version": 1
  },
  "userdoc": {
    "kind": "user",
    "methods": {},
    "version": 1
  }
}